:040000000DEF00F010
:040008009CEF00F079
:10001800C00093EF00F0110E3A01ED6F330E106F30
:100028003F01C491BC813A01628160913F01C48360
:100038003A0160933F018F511F0B80098F6F8E39F2
:10004800E832070B016E01B0FAD73F0E911737015E
:1000580000913F0E031703810383038503870389F8
:10006800038B049F049D04970499049B04910493B3
:100078000495058F059D0595000EB86F000EB96FA4
:10008800000EBC6F000EBD6F3F018F511F0B400962
:100098008F6F8E39E832070B016E01B0FAD78E9355
:1000A8008E958E973901958F959D958B9589958716
:1000B80095859583958112003F01D29BD28F0FECD5
:1000C80000F0030E036E8A0E026E560EE82EFED75F
:1000D800022EFCD7032EFAD77BEC00F0210E026E1D
:1000E800760EE82EFED7022EFCD700D0F5D73701C2
:1000F800E0B71200FC0EE017AA0EE16FE00EE26F07
:10010800E59DE551F00B0409E56FB10EE66F6B0E46
:10011800E76F000EE86FB50EE96FE0871200080E72
:10012800D56E000ED66E000ED76E000160EF00F09F
:02013800FFD7EF
:020000040020DA
:10000000FF0FFF0FFF0FFF0FFF0FFF0FFF0FFF0F80
:020000040030CA
:0A000000ECFEF7FF9FFFFFFFFFFF7C
:00000001FF
